:0400000002001132B7
:03000B0002028965
:20006A00750A01750B04750C05750D05750E03750F027510307511FF7512387513FF75164E
:0D008A000075170075180075190002000EB2
:03000E000202F2F9
:20009700B2972274FB251440090514E5152515F5152275140075150122D296851082851129
:2000B70083E515F0AE12AF13E514240AF9E79002FE938E828F83F0C29602009AE516FFB55B
:2000D70017030201D8EFB518030201D8EFB519030201D8BF2144AE0EBE09005007EE04F5FA
:2000F7000E0201D8AD0FBD0100400ABD02005011BE0600500C750E00E50FFC04F50F02017E
:20011700D8BE090280030201D8BD010280030201D8750F02750E000201D8BF1123AE0CBE5C
:2001370009005007EE04F50C0201D874FA250D50030201D8750C00E50DFE04F50D0201D85A
:20015700BF0522AE0ABE09005007EE04F50A0201D874FA250B50030201D8750A00E50BFEC7
:2001770004F50B805CBF2225E50EFE6006EE14F50E804EE50F600B750E09E50FFE14F50F63
:20019700803FE50DFE603AEE14F50D8034BF1225E50CFE6006EE14F50C8026E50D600B7581
:2001B7000C09E50DFE14F50D8017E50BFE6012EE14F50B800CBF0609E50AFF6004EF14F570
:2001D7000AAF188F19AF178F18AF168F1775160022051B30B506E51A4516F516E51A251A5C
:2001F700F51A7440B51A0D751400751A01E51660030200D322740AB50A09750A00E50BFF27
:2002170004F50B7406B50B09750B00E50CFF04F50C22740AB50C09750C00E50DFF04F50D29
:200237007406B50D09750D00E50EFF04F50E22740AB50E09750E00E50FFF04F50FAF0FBF80
:20025700020674FC250E4005BF03004012750A00750B00750C00750D00750E00750F002258
:2002770010000122E50A04F50A12020C120229020246C0E0C0D0758CE4758A7CD20105082B
:20029700E4B508020509C3E509648094844008D200E50924FCF509D0D0D0E032E4F508F56B
:2002B70009C200C201751B00751A01751400751501758CE4758DFA758A7C758BFAC28FC2FC
:2002D70098C299D2A9D2ACD2AFD28CD28E22100101221202771201E80200B01202B3120273
:0302F700E580FBA4
:0A02FE003F065B4F666D7D077F6FC2
:06004000E47801F6D8FD92
:20001E007900E94400601B7A00900308780175A000E493F2A308B8000205A0D9F4DAF2757D
:02003E00A0FF21
:200046007800E84400600A790175A000E4F309D8FC7800E84400600C7900900001E4F0A3B8
:04006600D8FCD9FAEF
:0D0011007581201202FAE582600302000EE4
:0402FA0075820022E7
:00000001FF
