:030000000200807B
:06000B00758CE0D2D53235
:100080007575297574377573171201797976C2966B
:100090007F019001A775A800758970758CE07E843A
:1000A0007D04D28CD2A9D2AF30D5FDC2D57838E745
:1000B00009D296F27830EFF2C29630B502427C2334
:1000C000FF30E7227F017976E57CB57D0DB57E0AAC
:1000D000B57F0280056003120111857E7F857D7EDC
:1000E000857C7D757C00DEC0DDBE7E847D0405756B
:1000F000E575B43C177575000574E574B43C0D7571
:1001000074000573E573B4180375730012017980E8
:1001100097B42208E573B41744757300B42108E559
:1001200073B4003D757317B41208E574B43B3675AB
:100130007400B41108E574B4002F75743BB406085C
:10014000E575B43B28757500B40508E575B4002164
:1001500075753BB4081F7575007E847D040573803A
:1001600014157380100574800C1574800805758053
:100170000415758000120179229001A7E57575F0CC
:100180000A8493F577E5F093F576E57475F00A84C3
:1001900093F579E5F093F578E57375F00A8493F5B6
:1001A0007BE5F093F57A223F065B4F666D7D077F16
:0301B0006F777CEA
:00000001FF
